:0400000051EF00F0CC
:10000800FACF1CF0FBCF1DF0E9CF1EF056EF08F039
:10001800D8CF01F0E8CF02F0E0CF03F0FACF04F038
:10002800FBCF05F0E9CF06F0EACF07F0E1CF08F003
:10003800E2CF09F0D9CF0AF0DACF0BF0F3CF0CF00A
:10004800F4CF0DF0F6CF0EF0F7CF0FF0F8CF10F099
:10005800F5CF11F011C0F5FF10C0F8FF0FC0F7FF82
:100068000EC0F6FF0DC0F4FF0CC0F3FF0BC0DAFFA3
:100078000AC0D9FF09C0E2FF08C0E1FF07C0EAFFD4
:1000880006C0E9FF05C0FBFF04C0FAFF03C0E0FF9C
:1000980002C0E8FF01C0D8FF1000B1EF0FF09EECDE
:1000A80010F08BEC0CF08080D00E0001E56FC90ECB
:1000B800E82EFED7E52FFCD700D080900001E56F31
:1000C800010E00010001BF6F0001E5510001D4ECF1
:1000D8000CF081BA01D001D014D0FF0E000100014C
:1000E800CE6F260E0001CD6FFF0E00010001D06F0C
:1000F800EE0E0001CF6F00010DEC02F000EC0FF0E6
:1001080000D0000E00010001E76F000E0001E66F4D
:1001180000D0FE0E00010001CE6F460E0001CD6F2B
:10012800FF0E00010001D06FEE0E0001CF6F00013D
:100138000DEC02F0FD0E00010001CE6FEC0E000187
:10014800CD6FFF0E00010001D06FEE0E0001CF6FE2
:1001580000010DEC02F0FF0E00010001CE6F360E1B
:100168000001CD6FFF0E00010001D06FEE0E0001FF
:10017800CF6F00010DEC02F0FE0E00010001CE6F02
:10018800CB0E0001CD6FFF0E00010001D06FEE0E07
:100198000001CF6F00010DEC02F0FE0E000100011E
:1001A800CE6F8F0E0001CD6FFF0E00010001D06FE2
:1001B800EE0E0001CF6F00010DEC02F0FE0E000103
:1001C8000001CE6FA40E0001CD6FFF0E00010001EB
:1001D800D06FEE0E0001CF6F00010DEC02F0FF0EA4
:1001E80000010001CE6F140E0001CD6FFF0E00015B
:1001F8000001D06FEE0E0001CF6F00010DEC02F090
:10020800FF0E00010001CE6FF10E0001CD6F00015D
:100218000DEC02F00001000E00010001CB6F00019F
:100228006F0E0001CA6F0001A9EC10F00001000E6A
:1002380000010001C06F00016F0E0001BF6FFF0ECB
:1002480000010001C26FF60E0001C16F0001E5EC6C
:100258000DF000010001C0510001BF11D8A401D068
:1002680001D003D0B2EC0EF0B8D00001000E0001AE
:100278000001C06F00016F0E0001BF6FFF0E00018B
:100288000001C26FF80E0001C16F0001E5EC0DF02E
:1002980000010001C0510001BF11D8A401D001D054
:1002A80003D08DEC09F099D00001000E0001000187
:1002B800C06F00016F0E0001BF6FFF0E000100014B
:1002C800C26FFA0E0001C16F0001E5EC0DF00001EC
:1002D8000001C0510001BF11D8A401D001D003D042
:1002E8003CEC0CF07AD00001000E00010001C06F58
:1002F80000016F0E0001BF6FFF0E00010001C26F09
:10030800FA0E0001C16F0001E5EC0DF000010001DB
:10031800C0510001BF11D8A401D001D003D03CECDA
:100328000CF05BD00001000E00010001C06F00015D
:100338006F0E0001BF6FFF0E00010001C26FFC0EBF
:100348000001C16F0001E5EC0DF000010001C05192
:100358000001BF11D8A401D001D003D031EC06F0C0
:100368003CD00001000E00010001C06F00016F0EBB
:100378000001BF6FFF0E00010001C26FFC0E0001FB
:10038800C16F0001E5EC0DF000010001C051000152
:10039800BF11D8A401D001D003D00EEC10F01DD0AD
:1003A800FF0E00010001CE6F020E0001CD6FFF0E9F
:1003B80000010001D06FEE0E0001CF6FFF0E0001AB
:1003C8000001D26FEE0E0001D16F00010DEC02F0BA
:1003D80004D003D002D001D000D0FF0E00010001EC
:1003E800CE6FE70E0001CD6FFF0E00010001D06F48
:1003F800EE0E0001CF6FFF0E00010001D26FEE0E6E
:100408000001D16F00010DEC02F083D682D651EFC6
:1004180000F00001000E00010001D86F0001CF0EAE
:100428000001D76F48D100010001DD51250AD8B479
:1004380001D001D006D0DDC0BFF00001C3EC10F040
:100448003AD10001D36F000E00010001D56F000101
:10045800D3514CD04ED170D06FD0D7C0D9FFD8C0AF
:10046800DAFF0001DECFD9F00001DDCFDAF0020EAD
:1004780000010001D727000E0001D8230001000168
:10048800DA51D911D8A401D001D01DD0FF0E000136
:100498000001DA6FE00E0001D96F15D014D0000109
:1004A800D9C0F6FF0001DAC0F7FF000EF86E0800A9
:1004B8000001F5CFBFF00001C3EC10F0000100010E
:1004C800D94BDA2B00D00001D9C0F6FF0001DAC001
:1004D800F7FF000EF86E0800F5500009D8A401D007
:1004E80001D0DDD7E8D0E7D0E6D026D00001000162
:1004F800CD510001D36F00010001CE510001D46F2E
:100508000001CD4BCE2BD3C0F6FFD4C0F7FF000EB1
:10051800F86E08000001F5CFDDF00001DD51000A9A
:10052800D8B4E7D0640AD8B407D00D0AD8B404D038
:100538001A0AD8B492D7BFD0D7C0D9FFD8C0DAFF2B
:100548000001DECFD9F00001DDCFDAF0020E0001A4
:100558000001D727000E0001D82300010001DAAFFF
:1005680001D001D00CD0030E00010001D513000109
:100578000001D96D0001DA1FD8B0DA2B00D00001D4
:10058800D36F010E00010001DD6F0001D35100019E
:100598000001DD51050AD8A401D001D002D030D025
:1005A8002FD000010001DD51020DE20EF324F66E9A
:1005B800FD0EF420F76EF86A000EF8220900F5CF58
:1005C800D3F00900F5CFD4F00001D35100010001A8
:1005D800D95D0001D45100010001DA59D8B001D029
:1005E80001D002D00DD00CD000010001DD2B00019C
:1005F8000001DD51050AD8A401D001D0D2D700D01E
:1006080000010001D551030BD8B401D001D00CD0A2
:100618000001D36F2D0E00010001BF6F0001D351FF
:100628000001C3EC10F000D0DDC0D6F039D00001D5
:100638000001D651020DE20EF324F66EFD0EF420F1
:10064800F76EF86A000EF82209000001F5CFC1F034
:100658000A000001F5CFC2F0D9C0BFF0DAC0C0F07F
:1006680000012DEC09F00001BFC0C7F00001C0C0B7
:10067800C8F0000E00010001CA6F0A0E0001C96F20
:100688000001ECEC0BF000010001C751300F000134
:100698000001DD6FDDC0BFF00001C3EC10F000D039
:1006A80000010001D6070001D629D8A401D001D045
:1006B800BED701D000D000010001CD510001D36F99
:1006C80000010001CE510001D46F0001CD4BCE2BAB
:1006D800D3C0F6FFD4C0F7FF000EF86E0800000183
:1006E800F5CFDDF00001DD6701D001D09CD601D047
:1006F80000D01200000100016E2B000100016E51B4
:10070800090AD8A401D001D04DD10001DE6F000E36
:10071800000100016E6F0001DE51FE0E00010001B4
:10072800CE6FC80E0001CD6FFF0E00010001D06F23
:10073800EE0E0001CF6F00010DEC02F0FF0E00017C
:100748000001CE6FD70E0001CD6F61C0CFF062C03F
:10075800D0F0FF0E00010001D26FEE0E0001D16F44
:1007680000010DEC02F0FF0E00010001CE6FCE0E6D
:100778000001CD6F63C0CFF064C0D0F0FF0E000160
:100788000001D26FEE0E0001D16F00010DEC02F0F6
:10079800FF0E00010001CE6FBA0E0001CD6F67C0D9
:1007A800CFF068C0D0F0FF0E00010001D26FEE0E4E
:1007B8000001D16F00010DEC02F0FF0E00010001F5
:1007C800CE6FB00E0001CD6F65C0CFF066C0D0F01F
:1007D800FF0E00010001D26FEE0E0001D16F000183
:1007E8000DEC02F0FF0E00010001CE6FA60E000115
:1007F800CD6F69C0CFF06AC0D0F0FF0E00010001D4
:10080800D26FEE0E0001D16F00010DEC02F0000175
:1008180000016B6701D001D012D0FF0E000100016A
:10082800CE6F7A0E0001CD6FFF0E00010001D06F70
:10083800EE0E0001CF6F00010DEC02F000D00001B8
:1008480000016B05D8A401D001D012D0FF0E000121
:100858000001CE6F910E0001CD6FFF0E0001000167
:10086800D06FEE0E0001CF6F00010DEC02F000D04A
:10087800000100016B51020AD8A401D001D012D0A6
:10088800FF0E00010001CE6FC40E0001CD6FFF0EF8
:1008980000010001D06FEE0E0001CF6F00010DECDA
:1008A80002F000D0000100016B51030AD8A401D066
:1008B80001D012D0FF0E00010001CE6F6E0E0001B4
:1008C800CD6FFF0E00010001D06FEE0E0001CF6F5B
:1008D80000010DEC02F000D0000100016B51040A88
:1008E800D8A401D001D012D0FF0E00010001CE6FB4
:1008F800610E0001CD6FFF0E00010001D06FEE0EFA
:100908000001CF6F00010DEC02F000D000010001E2
:100918006D6701D001D012D0FF0E00010001CE6F2B
:100928009C0E0001CD6FFF0E00010001D06FEE0E8E
:100938000001CF6F00010DEC02F000D000010001B2
:100948006D05D8A401D001D012D0FF0E000100011E
:10095800CE6F540E0001CD6FFF0E00010001D06F65
:10096800EE0E0001CF6F00010DEC02F000D0000187
:1009780000016D51020AD8A401D001D013D0FF0E96
:1009880000010001CE6F860E0001CD6FFF0E000141
:100998000001D06FEE0E0001CF6F00010DEC02F0E8
:1009A80001D000D01200C1C0C8F0C2C0C9F084D0C4
:1009B80083D000010001C95100010001C21906E1FC
:1009C80000010001C85100010001C119D8A401D0DB
:1009D80001D002D071D070D00001C36F200E000189
:1009E8000001BF6F0001C3510001C3EC10F000010A
:1009F800C36F080E00010001BF6F0001C351000161
:100A0800C3EC10F000010001C807D8A0C90754D0F2
:100A180027D00001C36F080E00010001BF6F00015D
:100A2800C3510001C3EC10F00001C36F200E000198
:100A38000001BF6F0001C3510001C3EC10F00001B9
:100A4800C36F080E00010001BF6F0001C351000110
:100A5800C3EC10F000010001C807D8A0C90700D0F6
:100A680000010001C85100010001C15D0001000141
:100A7800C95100010001C259D8A001D001D0C9D77D
:100A88001BD01AD000D0C8C0D9FFC9C0DAFF000EE9
:100A9800DF6EC1C0C1F0C2C0C2F035D034D0C8C00A
:100AA800D9FFC9C0DAFF0001C6C0DFFF000100019D
:100AB800C84BC92B01D000D01FEC10F00001C36F48
:100AC8000001C35100010001C66F0001C76B00019E
:100AD800C6C0C4F00001C7C0C5F00001C551000A76
:100AE800D8B401D0DCD70001C451080AD8B461D702
:100AF800020AD8B4C8D7070AD8B4C5D7180AD8B4D0
:100B0800AFD7CDD7D9D7120005D000010001C54B0A
:100B1800C62B00D0C5C0D9FFC6C0DAFFDF50200AF7
:100B2800D8B401D001D0F1D7C5C0D9FFC6C0DAFF0B
:100B3800DF50090AD8B401D001D0E7D700D0000EA1
:100B480000010001CC6F000E0001CB6F0001C76FE0
:100B5800000E00010001CA6F0001C7512D0EC5C06B
:100B6800D9FFC6C0DAFFDF6201D001D008D000018A
:100B78000001CA2B00010001C54BC62B42D02B0E29
:100B8800C5C0D9FFC6C0DAFFDF6201D001D039D0B5
:100B980000010001C54BC62B34D033D032D0CBC0B6
:100BA800BFF0CCC0C0F0000E00010001C26F0A0EF9
:100BB8000001C16F000123EC0EF0C5C0D9FFC6C00B
:100BC800DAFFDF500001C76F0001C75100010001C3
:100BD800BF250001C86F000E00010001C0210001FF
:100BE800C96FD00E0001C82500010001CB6FFF0EB0
:100BF8000001C9210001CC6F00010001C54BC62BC3
:100C080000D0C5C0D9FFC6C0DAFFDF50000100011F
:100C1800BF6F0001DBEC0EF0D8B001D001D0BFD718
:100C280000D000010001CA51D8B401D001D010D0C1
:100C38000001CBC0C7F00001CCC0C8F00001C71F3D
:100C4800C81FC74BC82BC7C0C5F0C8C0C6F004D062
:100C5800CBC0C5F0CCC0C6F01200FE0E00010001EA
:100C6800CE6FF00E0001CD6F00010DEC02F0000117
:100C7800000E00010001CB6F00016F0E0001CA6F6A
:100C88000001A9EC10F00001000E00010001C66F80
:100C980000016F0E0001C56F000188EC05F000012E
:100CA800C5C0E1F00001C6C0E2F00001DE6F010E30
:100CB80000010001E36F0001DE510DD0FA0E0001C2
:100CC800DE6F580EE82EFED7DE2FFCD700F00001AD
:100CD8000001E32B00D000010001E36701D001D03F
:100CE800EDD700D00001DE6F320E00010001BF6FAA
:100CF8000001DE5100011FEC0FF00001DE6FCE0E87
:100D080000010001BF6F0001DE5100013EEC0FF051
:100D18000001DE6F000E00010001E46F0001DE51EA
:100D28000CD0D00E0001DE6FC90EE82EFED7DE2FE4
:100D3800FCD700D000010001E42B00010001E451C0
:100D48000001DE6FDF6B0001DF51800A0001E06FF8
:100D58000001E1510001DE5D00010001E251800A5D
:100D68000001E059D8A001D001D0DBD700D00001A4
:100D7800DE6F000E00010001BF6F0001DE510001AF
:100D88001FEC0FF00001DE6F000E00010001BF6FC5
:100D98000001DE5100013EEC0FF01200B2EC10F041
:100DA8002AC0C6F02BC0C7F000010001C2AF01D0B5
:100DB80001D013D00001C56F9C0E00010001BF6F68
:100DC8000001C55100011FEC0FF000010001C16DC9
:100DD8000001C21FD8B0C22B0CD00001C56F640E31
:100DE80000010001BF6F0001C55100011FEC0FF0A9
:100DF80000D000010001C4AF01D001D013D0000120
:100E0800C56F9C0E00010001BF6F0001C5510001B4
:100E18003EEC0FF000010001C36D0001C41FD8B003
:100E2800C42B0DD00001C56F640E00010001BF6F17
:100E38000001C55100013EEC0FF001D000D00001C7
:100E48000001C1512C5C00010001C2512D58D8A0ED
:100E580001D001D00CD00001C56F000E00010001C7
:100E6800BF6F0001C55100011FEC0FF000D0000159
:100E78000001C3512E5C00010001C4512F58D8A0B5
:100E880001D001D00CD00001C56F000E0001000197
:100E9800BF6F0001C55100013EEC0FF000D02A667B
:100EA80001D001D0CCD72B6601D001D0C8D703D050
:100EB80002D0C5D7C4D7C6C0BFF000011FEC0FF0E1
:100EC800C7C0BFF000013EEC0FF012000001BF6F79
:100ED800370E00010001C06F0001BF510001BF6F54
:100EE800370E00010001C16F0001BF510001000170
:100EF800C051000100016C6101D001D01BD0C0C0FD
:100F08006DF0020E000100016B6101D001D003D029
:100F1800040E55D054D0000120EE6BF0020EDF64B1
:100F280001D001D003D0050E4AD049D0030E47D0D6
:100F380046D045D0000100016C5100010001C1619B
:100F480001D001D01BD0C1C06DF0020E000100011C
:100F58006B6101D001D003D0070E31D030D0000131
:100F680020EE6BF0020EDF6401D001D003D0080E32
:100F780026D025D0060E23D022D021D00001BF6F65
:100F8800000E000100016D6F0001BF51020E00014B
:100F980000016B6101D001D003D0010E10D00FD039
:100FA800000120EE6BF0020EDF6401D001D003D007
:100FB800020E05D004D0000E02D001D000D01200DD
:100FC800000171EC10F000010001CF510001000197
:100FD800612700010001D0510001000162230001D6
:100FE80000010001D89062336133000162EC10F017
:100FF80000010001CF510001000167270001000135
:10100800D051000100016823000100010001D890BF
:1010180068336733000180EC10F000010001CF5104
:1010280000010001632700010001D0510001000107
:101038006423000100010001D89064336333000188
:101048008FEC10F000010001CF510001000165276D
:1010580000010001D05100010001662300010001D8
:101068000001D89066336533000120EE63F0DECFCF
:10107800D3F0DDCFD4F00001D31FD41FD34BD42B32
:101088000001000161510001D32500010001696FD1
:101098000001000162510001D42100016A6F61C0A2
:1010A8006CF01200EACF1FF0E1CF20F0E2CF21F080
:1010B800D9CF22F0DACF23F0F3CF24F0F4CF25F004
:1010C800F6CF26F0F7CF27F0F8CF28F0F5CF29F0A4
:1010D8009EA001D001D02FD09E90CF68000ECE6E7A
:1010E80080AA01D001D002D0809A00D09BEC0BF0EE
:1010F8007AEC0FF0344A352A3550180A6A0ED8B4FB
:101108003418D8A401D001D01DD0000E356E000EC1
:10111800346E00F0010E3026000E3122000E32220D
:10112800000E332200F000010001608100F0808091
:1011380000F008D007D09EA201D001D003D09E9223
:1011480001D000D029C0F5FF28C0F8FF27C0F7FF5D
:1011580026C0F6FF25C0F4FF24C0F3FF23C0DAFF42
:1011680022C0D9FF21C0E2FF20C0E1FF1FC0EAFF73
:101178001EC0E9FF1DC0FBFF1CC0FAFF11000001E3
:1011880020EE69F0DE52DD50800A810FF10ED8B4EE
:10119800DF5CD8B001D001D00AD00001BF6F000ECB
:1011A800000100016B6F0001BF5152D051D0000106
:1011B80020EE69F0DE52DD50800A810FFB0ED8B4B4
:1011C800DF5CD8B001D001D00AD00001BF6F010E9A
:1011D800000100016B6F0001BF513AD039D0000106
:1011E80020EE69F0DE52DD50800A800F050ED8B47B
:1011F800DF5CD8B001D001D00AD00001BF6F020E69
:10120800000100016B6F0001BF5122D021D0000105
:1012180020EE69F0DE52DD50800A800F0F0ED8B440
:10122800DF5CD8B001D001D00AD00001BF6F030E37
:10123800000100016B6F0001BF510AD009D0000105
:10124800BF6F040E000100016B6F0001BF5100D099
:101258001200000E00010001C66F000E0001C56FEC
:1012680000010001C251C111D8B401D001D04CD045
:101278000001C36F010E00010001C46F0001C351DA
:101288000AD0000100010001D890C137C23700011F
:101298000001C42B00D000010001C2AF01D001D071
:1012A800F0D701D000D0000100010001D890C53767
:1012B800C63700010001C15100010001BF5D0001F6
:1012C8000001C25100010001C059D8A001D001D0CD
:1012D80010D000010001C15100010001BF5F0001F1
:1012E8000001C25100010001C05B00010001C5817D
:1012F80000D0000100010001D890C233C1330001C1
:101308000001C42FD0D700D0C5C0BFF0C6C0C0F000
:101318001200FE0E00010001CE6F6B0E0001CD6FB2
:1013280000010DEC02F00001000E00010001CB6F7E
:1013380000016F0E0001CA6F0001A9EC10F0000156
:10134800000E00010001C66F00016F0E0001C56F9D
:10135800000188EC05F00001C5C0DEF00001C6C040
:10136800DFF0FE0E00010001CE6F210E0001CD6FEF
:1013780000010DEC02F00001000E00010001CB6F2E
:1013880000016F0E0001CA6F0001A9EC10F0000106
:10139800000E00010001C66F00016F0E0001C56F4D
:1013A800000188EC05F00001C5C0E0F00001C6C0EE
:1013B800E1F0DEC0C1F0DFC0C2F0E0C0C3F0E1C0C0
:1013C800C4F00001D2EC06F01200000E000100018A
:1013D800CC6F000E0001CB6F8386500EE82EFED72F
:1013E8008396FC0E00010001CE6F170E0001CD6F31
:1013F80000D083B401D001D00DD000010001CD4B45
:10140800CE2B0001CD05CE11D8A401D001D0F1D743
:1014180001D000D0CBEC10F0FC0E00010001CE6F23
:10142800170E0001CD6F00D083A401D001D00DD0DC
:1014380000010001CD4BCE2B0001CD05CE11D8A463
:1014480001D001D0F1D701D000D0000152EC10F04A
:101458000001BFC0CBF00001C0C0CCF0CBC0C7F0CA
:10146800CCC0C8F000015DEC0FF00001C7C0C9F0A6
:101478000001C8C0CAF000D01200000E000100012F
:10148800CC6F000E0001CB6F838C500EE82EFED778
:10149800839CFC0E00010001CE6F170E0001CD6F7A
:1014A80000D083BE01D001D00DD000010001CD4B8A
:1014B800CE2B0001CD05CE11D8A401D001D0F1D793
:1014C80001D000D0CBEC10F0FC0E00010001CE6F73
:1014D800170E0001CD6F00D083AE01D001D00DD022
:1014E80000010001CD4BCE2B0001CD05CE11D8A4B3
:1014F80001D001D0F1D701D000D0000152EC10F09A
:101508000001BFC0CBF00001C0C0CCF0CBC0C7F019
:10151800CCC0C8F000015DEC0FF00001C7C0C9F0F5
:101528000001C8C0CAF000D01200000E000100017E
:10153800CC6F000E0001CB6F8082500EE82EFED7D4
:101548008092FC0E00010001CE6F170E0001CD6FD6
:1015580000D080B401D001D00DD000010001CD4BE6
:10156800CE2B0001CD05CE11D8A401D001D0F1D7E2
:1015780001D000D0CBEC10F0FC0E00010001CE6FC2
:10158800170E0001CD6F00D080A401D001D00DD07E
:1015980000010001CD4BCE2B0001CD05CE11D8A402
:1015A80001D001D0F1D701D000D0000152EC10F0E9
:1015B8000001BFC0CBF00001C0C0CCF0CBC0C7F069
:1015C800CCC0C8F000015DEC0FF00001C7C0C9F045
:1015D8000001C8C0CAF000D01200000E00010001CE
:1015E800CC6F000E0001CB6F8480500EE82EFED722
:1015F8008490FC0E00010001CE6F170E0001CD6F24
:1016080000D084B201D001D00DD000010001CD4B33
:10161800CE2B0001CD05CE11D8A401D001D0F1D731
:1016280001D000D0CBEC10F0FC0E00010001CE6F11
:10163800170E0001CD6F00D084A201D001D00DD0CB
:1016480000010001CD4BCE2B0001CD05CE11D8A451
:1016580001D001D0F1D701D000D0000152EC10F038
:101668000001BFC0CBF00001C0C0CCF0CBC0C7F0B8
:10167800CCC0C8F000015DEC0FF00001C7C0C9F094
:101688000001C8C0CAF000D012003A50D8B401D046
:1016980001D002D03A0600D08D0E00010001655D30
:1016A800000E00016659D8A001D001D00DD03A66CD
:1016B80001D001D009D00001BF6F140E3A6E0001AD
:1016C800BF51010E33D032D08D0E00010001615D93
:1016D800000E00016259D8A001D001D00DD03A66A1
:1016E80001D001D009D00001BF6F140E3A6E00017D
:1016F800BF51010E1BD01AD0500E00010001675DCA
:10170800000E00016859D8B001D001D00DD03A665A
:1017180001D001D009D00001BF6F140E3A6E00014C
:10172800BF51010E03D002D0000E00D01200382A9B
:10173800392A2AC012F096EC0FF0176E186A38C0D2
:1017480019F01A6A19BE1A061A50800A1B6E175029
:10175800195C1850800A1B58D8A001D001D003D0BA
:10176800D8EC10F000D02BC012F096EC0FF0176EEA
:10177800186A39C019F01A6A19BE1A061A50800A6E
:101788001B6E1750195C1850800A1B58D8A001D03E
:1017980001D003D0DCEC10F000D03850640AD8A493
:1017A80001D001D007D0176E000E386E175030ECFC
:1017B80010F000D03950640AD8A401D001D007D065
:1017C800176E000E396E175041EC10F000D0120061
:1017D80000010001CA51C911D8B401D001D043D0C9
:1017E8000001CB6F010E00010001CC6F0001CB514D
:1017F8000AD0000100010001D890C937CA3700019A
:101808000001CC2B00D000010001CAAF01D001D0EB
:10181800F0D701D000D000010001C951000100013A
:10182800C75D00010001CA5100010001C859D8A0D4
:1018380001D001D00DD000010001C9510001000103
:10184800C75F00010001CA5100010001C85B00D058
:10185800000100010001D890CA33C933000100011A
:10186800CC2FD9D700D0C7C0C7F0C8C0C8F0120065
:10187800FF0E00010001CE6F460E0001CD6F000182
:101888000DEC02F00001000E00010001CB6F000119
:101898006F0E0001CA6F0001A9EC10F00001000EE4
:1018A80000010001C66F00016F0E0001C56F000145
:1018B80088EC05F000010001C55100010001DE6F50
:1018C800DEC0BFF000011FEC0FF0DEC0BFF000016A
:1018D8003EEC0FF0FE0E00010001CE6FB80E0001C5
:1018E800CD6F00010001DE5100010001CF6F000142
:1018F800D06B0001CFBFD007FF0E00010001D26FEF
:10190800EE0E0001D16F00010DEC02F01200040E82
:10191800926E300E936EC00E946E870E956E020E08
:10192800966E000E0F010F01386F000E0F010F01A8
:10193800396F000E0F010F013A6F000E0F010F01F2
:101948003B6F000E0F010F013C6F000E806E000E02
:10195800816E000E826E000E836E000E846ED2ECD5
:1019680010F0FE0E00010001CE6FDE0E0001CD6FFB
:10197800FF0E00010001D06FF40E0001CF6FFF0EC3
:1019880000010001D26FEE0E0001D16F00010DECD5
:1019980002F0BBEC10F0E0EC10F0F28EF28C1200CA
:1019A8000001C06F000E00010001C46F0001C051AA
:1019B800C70E00010001C46501D001D002D035D0A6
:1019C80034D0807A0001C06F000E00010001C36F9F
:1019D8000001C05104D000010001C32B00D0000158
:1019E8000001BF51320D00010001C3510001C06F59
:1019F800C16B0001C151800A0001C26FF3500001A0
:101A0800C05DF450800A0001C259D8A001D001D0AD
:101A1800E2D700D000010001C42BC70E000100016D
:101A2800C46501D001D0CDD700D01200020E00014C
:101A38000001BF6F000E0001C06F000E0001C16FF2
:101A4800000E0001C26F000157EC0EF0000120EEFD
:101A580061F0000110EE65F0E652DE52DD50E55C03
:101A680002E1DF50E75CD8B001D001D012D0000EFF
:101A780000010001C26F260E0001C16FFF0E0001B8
:101A88000001C46FDA0E0001C36F0001D2EC06F04A
:101A980012D0FF0E00010001C26FDA0E0001C16F03
:101AA800000E00010001C46F260E0001C36F000183
:101AB800D2EC06F000D01200C3EC08F06AEC07F094
:101AC80000010001CE6F1CD001D000D0C9EC0FF08E
:101AD80036D001D000D0F7EC0FF031D001D000D0D3
:101AE800E0EC0FF02CD00001CD6F0A0E00010001D0
:101AF800C96F0001CD51000188EC0EF020D01FD035
:101B080000010001CE51000AD8B4E0D7010AD8B4C8
:101B1800E2D7030AD8B4E4D7010AD8B4DCD7070A55
:101B2800D8B4D9D7010AD8B4D1D7030AD8B4D8D7EA
:101B3800010AD8B4CBD70F0AD8B4D2D7D4D7120059
:101B48000001C66F000E00010001C76F0001C651F9
:101B58002CD00001C66F050E00010001BF6F000107
:101B6800C6510001D4EC0CF00001C66F9B0E0001B9
:101B78000001C86F0001C6510DD0150E0001C66FD7
:101B8800C60EE82EFED7C62FFCD700F000010001D4
:101B9800C82B00D000010001C86701D001D0EDD7E3
:101BA80000D000010001C72B00D000010001C55181
:101BB80000010001C75DD8A001D001D0CAD700D06C
:101BC800120009D000010001BF4BC02B0001000129
:101BD800C14BC22B00D0BFC0D9FFC0C0DAFFDF5055
:101BE8000001C36F0001C1C0F6FF0001C2C0F7FFCA
:101BF800000EF86E0800F55000080001C32500012A
:101C08000001C46F0001C46701D001D00BD0BFC070
:101C1800D9FFC0C0DAFFDF50D8A401D001D0D2D795
:101C280001D000D000010001C45100010001BF6FC4
:101C38000001C06B0001BFBFC00700D01200000E3A
:101C480000010001C46F000E0001C36F00D0000145
:101C58000001BFA101D001D00DD000010001C15188
:101C680000010001C32700010001C2510001000169
:101C7800C42300D0000100010001D890C137C23749
:101C8800000100010001D890C033BF3300010001FA
:101C9800C051BF11D8A401D001D0D9D7C3C0BFF05B
:101CA800C4C0C0F0120000010001BF51302400017F
:101CB8000001C36F00010001C05131200001C46F51
:101CC80000010001C15132200001C56F000100016F
:101CD800C25133200001C66F01D000D000010001BD
:101CE800C351305C00010001C451315800010001AA
:101CF800C551325800010001C6513358D8A001D04F
:101D080001D0ECD700D012002AC0CBF02BC0CCF009
:101D18000001CA6F000E00010001BF6F0001CA5127
:101D280000011FEC0FF00001CA6F000E0001000156
:101D3800BF6F0001CA5100013EEC0FF0C9C0C5F0E9
:101D48000001A4EC0DF0CBC0BFF000011FEC0FF0B8
:101D5800CCC0BFF000013EEC0FF012000001D36FC1
:101D6800000E00010001D46F0001D35100010001F1
:101D7800D405D8A401D001D002D018D017D00001C2
:101D880071EC10F0000180EC10F0000162EC10F032
:101D980000018FEC10F000010001D42B00010001BC
:101DA800D405D8A401D001D0EAD700D01200000190
:101DB800C06F000E00010001C16F0001C0513A0E52
:101DC80000010001BF6101D001D010D02F0E000129
:101DD8000001BF6501D001D009D00001C06F010E1C
:101DE80000010001C16F0001C05100D0C1C0C0F0A6
:101DF8000001C03100D012000001000160A101D033
:101E080001D0FAD7809000F0000100016091E4EC65
:101E180007F060EC0DF049EC0BF00009D8B401D0E4
:101E280001D003D01AEC0DF000D07EEC03F0E4D71B
:101E3800E3D7E2D71200BFC02AF02A50800A1C0F4D
:101E4800D8A001D001D007D00001C06F630E2A6E60
:101E58000001C05100D02A50800AE30FD8B001D049
:101E680001D007D00001C06F9D0E2A6E0001C0513D
:101E780000D01200BFC02BF02B50800A1C0FD8A036
:101E880001D001D007D00001C06F630E2B6E000196
:101E9800C05100D02B50800AE30FD8B001D001D038
:101EA80007D00001C06F9D0E2B6E0001C05100D0FD
:101EB8001200C7C0BFF0C8C0C0F0000E000100018A
:101EC800C26F3C0E0001C16F00012DEC09F0040E39
:101ED80000010001BF2500010001C76F000E0001CD
:101EE8000001C0210001C86F00D012008350010B0F
:101EF8003718D8B401D001D006D0000E83B0010E37
:101F0800376E2E4A2F2A8330010B3618D8B401D0E9
:101F180001D007D0000E83B2010E366E2C4A2D2A4E
:101F280000D0120012BE01D001D006D01250156E9A
:101F3800166A15BE16060ED012C013F0146A13BE28
:101F48001406131E141E134A142A13C015F014C0C5
:101F580016F000D0155000D0120000EE60F05F0EB1
:101F6800EE6AE806FDE100EE2AF0100EEE6AE806D9
:101F7800FDE1C60EF66E210EF76E000EF86E090032
:101F8800F5CF3AF0000153EF00F00001C16F320EB7
:101F980000010001BF6F0001C15100011FEC0FF0EB
:101FA8000001C16F320E00010001BF6F0001C15175
:101FB80000013EEC0FF012000001C16F2A0E000173
:101FC8000001BF6F0001C15100011FEC0FF00001BB
:101FD800C16F320E00010001BF6F0001C151000145
:101FE8003EEC0FF012000001C16F320E000100013B
:101FF800BF6F0001C15100011FEC0FF00001C16F5C
:102008002A0E00010001BF6F0001C15100013EEC22
:102018000FF012000A0E00010001BF6F000E000150
:10202800C06F000E0001C16F000E0001C26F0001F9
:1020380057EC0EF0120000D09EAA01D001D0FCD7B8
:10204800AECFC0F0C0C0BFF00001C3EC10F000017B
:102058000001C05100D012002A50800A7F0FD8A07A
:1020680001D001D002D0838807D02AAE01D001D098
:1020780003D0838A01D000D012002B50800A7F0F32
:10208800D8A001D001D002D0828807D02BAE01D0D1
:1020980001D003D0828A01D000D012000001D6CF2F
:1020A800C1F000010001C26BD75000010001C22736
:1020B800C1C0BFF0C2C0C0F000D012000001E9ECFE
:1020C80009F00001C9C0D1F00001CAC0D2F0D1C0E6
:1020D800CFF0D2C0D0F000D01200000141EC0AF0DD
:1020E8000001C9C0D1F00001CAC0D2F0D1C0CFF000
:1020F800D2C0D0F000D01200000199EC0AF0000123
:10210800C9C0D1F00001CAC0D2F0D1C0CFF0D2C04E
:10211800D0F000D012000001F1EC0AF00001C9C0B3
:10212800D1F00001CAC0D2F0D1C0CFF0D2C0D0F0F7
:1021380000D01200D388D38AD38C9B8C00D0D2AE27
:1021480001D001D0FCD700D01200CAC0C1F0CBC06A
:10215800C2F00001D7EC04F000D01200000E2D6E82
:10216800000E2C6E000E2F6E000E2E6E1200D59EE5
:10217800D59CD59AD596D580D592D594120000D005
:10218800ACA201D001D0FCD7BFC0ADFF1200D59ED4
:10219800000ED76E000ED66ED58E1200670EAF6E8B
:1021A800AB8EAC8AAB881200839800F0839A120039
:1021B800829800F0829A1200CD809D80120014004F
:10FDE20001000A006400E8031027434F50595249AA
:10FDF200474854203230313320284329204A415386
:10FE02004F4E205748495445203C4A41534F4E409B
:10FE12004A5357484954452E4E45543E2573004592
:10FE22006E74657220726967687420456E636F64D0
:10FE32006572205469636B73202835302F726576A2
:10FE4200293A20004D415A4520524F424F542046F4
:10FE520049524D57415245204259204A41534F4E33
:10FE6200205748495445257300456E746572204CED
:10FE720065667420456E636F646572205469636BB6
:10FE820073202835302F726576293A2000333A20C4
:10FE9200536574204D6F746F7220506F77657225B1
:10FEA2007300343A2054696D65205475726E205483
:10FEB200657374257300506F7765722053657420E3
:10FEC200546F20256420257300323A205475726ED7
:10FED20020456E63205465737425730025735B326D
:10FEE2004A424F4F54494E472E2E2E257300456EDF
:10FEF200746572207475726E2074696D653A2000A3
:10FF0200434F4D4D414E44204552524F5225732589
:10FF12007300353A20456E636F64657220546573D1
:10FF2200742573005354415254494E47204D415A4F
:10FF320045257300313A20536F6E6963205465730F
:10FF420074257300456E74657220706F7765723A1E
:10FF520020004453543A09436C6F73652573004182
:10FF62004E473A095668696768257300414E473A19
:10FF72000948696768257300414E473A09566C6F14
:10FF8200772573004453543A094661722573004140
:10FF92004E473A094C6F772573004453543A094F40
:10FFA2004B2573004449463A09256425730052479C
:10FFB200543A092564257300464E543A09256425AE
:10FFC2007300414E473A094F6B2573004C423A0980
:10FFD20025642573004C463A092564257300286E72
:10FFE200756C6C29004F4B25732573000D0A003E7A
:0EFFF20020001B0031003200330034000000FC
:020000040020DA
:08000000FFFFFFFFFFFFFFFF00
:020000040030CA
:0E000000FF08073CFFBF85FF0FC00FE00F4059
:00000001FF
