:0400000051EF00F0CC
:10000800FACF12F0FBCF13F0E9CF14F0C8EF0AF0E3
:10001800D8CF01F0E8CF02F0E0CF03F0FACF04F038
:10002800FBCF05F0E9CF06F0EACF07F0E1CF08F003
:10003800E2CF09F0D9CF0AF0DACF0BF0F3CF0CF00A
:10004800F4CF0DF0F6CF0EF0F7CF0FF0F8CF10F099
:10005800F5CF11F011C0F5FF10C0F8FF0FC0F7FF82
:100068000EC0F6FF0DC0F4FF0CC0F3FF0BC0DAFFA3
:100078000AC0D9FF09C0E2FF08C0E1FF07C0EAFFD4
:1000880006C0E9FF05C0FBFF04C0FAFF03C0E0FF9C
:0E00980002C0E8FF01C0D8FF1000D4EF0BF04B
:1010000001000A006400E8031027434F5059524979
:10101000474854203230313320284329204A415355
:101020004F4E205748495445203C4A41534F4E406B
:101030004A5357484954452E4E45543E0A0A004DDE
:10104000415A4520524F424F54204649524D574134
:101050005245204259204A41534F4E205748495447
:10106000450A00546865203130206D732076616C2C
:1010700075652069733A2025640A0054686520323A
:1010800030206D732076616C75652069733A202578
:10109000640A005468652035206D732076616C7594
:1010A000652069733A2025640A00313A20536F6E37
:1010B0006963205465737400424F4F54494E472E64
:1010C0002E2E0A000D0A0D0A0D0A0D0A003A200004
:1010D00031000000000E356E300E346EB6D03D503B
:1010E000250AD8B401D001D005D03DC020F0BBEC1A
:1010F0000BF0ABD0326E000E366E325005D0BAD047
:101100001DD01CD0A2D01AD02E50326E2F50336E6C
:101110002E4A2F2A32C0F6FF33C0F7FF000EF86EBA
:101120000800F5CF3DF03D50000AD8B4A3D0640AC2
:10113000D8B404D00D0AD8B401D087D034C0D9FFB8
:1011400035C0DAFFDECF38F0DDCF39F0020E3426BD
:10115000000E352239AE01D001D007D0030E361271
:10116000386C391ED8B0392A00D0326E010E3D6E6F
:1011700032503D50050AD8A401D001D002D024D06D
:1011800023D03D50020D000EF324F66E100EF42015
:10119000F76EF86A000EF8220900F5CF32F0090068
:1011A000F5CF33F03250385C33503958D8B001D0D5
:1011B00001D002D009D008D03D2A3D50050AD8A45C
:1011C00001D001D0DED700D03650030BD8B401D007
:1011D00001D007D0326E2D0E206E3250BBEC0BF0DA
:1011E00000D03DC037F029D03750020D000EF32457
:1011F000F66E100EF420F76EF86A000EF822090061
:10120000F5CF22F00A00F5CF23F038C020F039C026
:1012100021F092EC0AF020C028F021C029F0000E45
:101220002B6E0A0E2A6E2BEC0BF02850300F3D6E01
:101230003DC020F0BBEC0BF000D037063728D8A417
:1012400001D001D0D1D701D000D02E50326E2F5016
:10125000336E2E4A2F2A32C0F6FF33C0F7FF000E3E
:10126000F86E0800F5CF3DF03D6601D001D037D7CC
:1012700001D000D0120021C028F022C029F054D0A3
:1012800053D02950221802E128502118D8A401D0A7
:1012900001D002D049D048D0236E200E206E2350BA
:1012A000BBEC0BF0236E080E206E2350BBEC0BF052
:1012B0002806D8A0290638D016D0236E080E206E36
:1012C0002350BBEC0BF0236E200E206E2350BBECA2
:1012D0000BF0236E080E206E2350BBEC0BF028069B
:1012E000D8A0290600D02850215C29502258D8A027
:1012F00001D001D0E2D718D017D000D028C0D9FF34
:1013000029C0DAFF000EDF6E21C021F022C022F0DA
:1013100029D028D028C0D9FF29C0DAFF26C0DFFF96
:10132000284A292A01D000D0AAEC0BF0236E2350C2
:10133000266E276A26C024F027C025F02550000A13
:10134000D8B401D0E7D72450080AD8B49AD7020AF3
:10135000D8B4D4D7070AD8B4D1D7180AD8B4C3D7C9
:10136000D9D7E2D71200D0EC0BF055EC0AF0808010
:10137000340E0001606FF10EE82EFED7602FFCD70F
:1013800000D08090000E00010001B26F000E00013D
:10139000B16F00D0100E246EAA0E236E86EC0BF0F7
:1013A000100E2F6ECD0E2E6E6AEC08F00001000EAE
:1013B0002B6E0001610E2A6E93EC0BF02B502A105D
:1013C000D8B401D001D009D00001000E246E000174
:1013D000610E236E86EC0BF000D00001000E216E32
:1013E0000001610E206E100E236ED00E226E59EC9D
:1013F0000BF021502010D8A401D001D0CBD706EC9F
:101400000AF0C8D7C7D7C6D751EF00F0C3EC0BF02E
:101410001A0E3E6EF80EE82EFED73E2EFCD700F0D8
:101420009FEC0BF020C03FF021C040F0100E2F6E5B
:10143000930E2E6E3FC030F040C031F06AEC08F0E1
:10144000C3EC0BF0340E3E6EF10EE82EFED73E2EAE
:10145000FCD700D09FEC0BF020C03FF021C040F043
:10146000100E2F6E630E2E6E3FC030F040C031F074
:101470006AEC08F0C3EC0BF0680E3E6EE40EE82E4A
:10148000FED73E2EFCD700F09FEC0BF020C03FF0C3
:1014900021C040F0100E2F6E7B0E2E6E3FC030F03C
:1014A00040C031F06AEC08F01200000E926E000E9F
:1014B000936E000E946E000E956E000E966E948CD8
:1014C000948E000E0F010F01386F000E0F010F01F7
:1014D000396F000E0F010F013A6F000E0F010F015F
:1014E0003B6F000E0F010F013C6FCAEC0BF0100EAA
:1014F000246EC40E236E86EC0BF0100E246EB80E14
:10150000236E86EC0BF0100E246E3F0E236E86ECDD
:101510000BF0100E246E0A0E236E86EC0BF0B3EC6B
:101520000BF01200000E266E000E256E23502210C6
:10153000D8B401D001D027D0246E010E276E2450DC
:1015400005D0D89022362336272A00D023AE01D0EA
:1015500001D0F7D701D000D0D890253626362250BA
:10156000205C23502158D8A001D001D006D02250B1
:10157000205E2350215A258000D0D8902332223279
:10158000272EEAD700D025C020F026C021F0120077
:10159000EACF15F0E1CF16F0E2CF17F0D9CF18F06F
:1015A000DACF19F0F3CF1AF0F4CF1BF0F6CF1CF01E
:1015B000F7CF1DF0F8CF1EF0F5CF1FF01FC0F5FFDD
:1015C0001EC0F8FF1DC0F7FF1CC0F6FF1BC0F4FFD4
:1015D0001AC0F3FF19C0DAFF18C0D9FF17C0E2FF25
:1015E00016C0E1FF15C0EAFF14C0E9FF13C0FBFFFE
:1015F00012C0FAFF110017D021C0F6FF22C0F7FF7A
:10160000000EF86E0F0EF76403D00800F55005D0F9
:10161000F6CFE9FFF7CFEAFFEF50206EBBEC0BF0FF
:10162000214A222A00D021C0F6FF22C0F7FF000E77
:10163000F86E0F0EF76403D00800F55005D0F6CF12
:10164000E9FFF7CFEAFFEF500009D8A401D001D09D
:10165000D3D700D012002B502A10D8B401D001D01B
:1016600023D02C6E010E2D6E2C5005D0D8902A362A
:101670002B362D2A00D02BAE01D001D0F7D701D0C8
:1016800000D02A50285C2B502958D8A001D001D076
:1016900005D02A50285E2B50295A00D0D8902B32E2
:1016A0002A322D2EEED700D028C028F029C029F0EC
:1016B000120005D0204A212A224A232A00D020C025
:1016C000D9FF21C0DAFFDF50246E22C0F6FF23C00D
:1016D000F7FF000EF86E0800F55000082424256E70
:1016E000256601D001D00BD020C0D9FF21C0DAFF80
:1016F000DF50D8A401D001D0DDD701D000D02550D3
:10170000206E216A20BE210600D0120023C021F0E5
:1017100024C022F0FBEC0AF0256E0A0E206E255044
:10172000BBEC0BF012002AC021F02BC022F03BECE6
:1017300009F021C02AF022C02BF000D01200D6CF31
:1017400022F0236AD750232622C020F023C021F0A4
:1017500000D0120000D09EAA01D001D0FCD700D04A
:10176000AE5000D01200D59ED59CD59AD596D58086
:10177000D592D594120000D0ACA201D001D0FCD7F4
:1017800020C0ADFF1200D59E000ED76E000ED66EA3
:10179000D58E1200190EAF6EAB8EAC8AAB881200DC
:0E17A000D388D38AD38C12000001B3EF09F076
:020000040020DA
:08000000FFFFFFFFFFFFFFFF00
:020000040030CA
:0E000000FF081E3CFFBF85FF0FC00FE00F4042
:00000001FF
